:0400000080312B28F8
:100008007E1480310B1F09280A2829282100111E77
:100018000E280F281A282000111E132814281A2821
:1000280037088A0036080A00803129282100911EE5
:100038001E281F2829282000911E23282428292823
:1000480035088A0034080A0080317E1009008031A2
:100058002D288231CF228031EB00F701F801F90118
:10006800FA01203084000030850048308231972220
:1000780080317E1020008031F82823009D1C4528FF
:10008800462849281D121D16F7281908F200E328EA
:10009800553072060319512852285328F72866301C
:1000A800C000F7285230720603195B285C286228C2
:1000B80053307206031D612862286B287208BD0040
:1000C8000830F7007208553EBC00C001F7286530BB
:1000D800C000F72872083C06031D732874286B2893
:1000E80052303D06031D79287A289D2877083A0260
:1000F80003187F28802882283A08F700F2019428FC
:1001080072083B07F0007008860087017208483EB5
:1001180084008501000881000130F0007008F207B2
:1001280077087202031C99289A2884287708BF0048
:100138006B2853303D06031DA228A3286B28770897
:1001480038020318A828A928AB283808F700F201B4
:10015800BD2872083907F000700886008701720808
:10016800483E84008501000881000130F0007008D5
:10017800F20777087202031CC228C328AD28770843
:10018800BE006B287208F0007008BC0710304002EF
:100198000318CF28D028D6284008483E8600870173
:1001A800720881000130F0007008C007770840022B
:1001B800031CDF28E028F7286930C000F728200052
:1001C8004008F000F1017108003A0319EC28C6282C
:1001D8007008653A03194C28033A031956280F3A50
:1001E80003196E28C6280800823169228031083038
:1001F800F3006030F4000830F500583082317C227A
:1002080080314130F3000030F4008231AF22803178
:100218008B170B178231032280316400640064005D
:100228002000E901EA0182311E228031003A0319D7
:100238001E291F29202937290B302000E8006230A9
:10024800890B2429E80B2429000001302000E90744
:100258000030EA3D00306A02643003196902031C69
:100268003629372917298231B522803120008C1E82
:100278003E293F294F290130E8006808C4070430A7
:100288004402031C482949294D290330C400C201EE
:10029800C20AC3015D290130E8006808C3071530A8
:1002A8004302031C582959295C291430C300C20190
:1002B800C4014208031961296229662922000C1524
:1002C8000E16132922000C110E1220006208E03EBF
:1002D800F3002E30633DF4008231A3228031823155
:1002E800C6228031132980312B2821009112C33076
:1002F800F3000130F4008231AF2281312100111264
:10030800E330F3000130F4008231A9228131083052
:1003180023009F0090309D0004309E0044309B00D5
:100328009C01FA01F9010830F8002000C701C60154
:10033800C50121009116080022008C018E01283089
:1003480021008C0021308E0023008E018C012400B6
:100358008C018E012100951725008C018E01373004
:1003680026008C003F308E0015303C009500093087
:100378003D009400043091000330900008002300F1
:100388009D1CC729C829CA291D121D162000470807
:10039800203E860087012300190881000130F00003
:1003A80070082000C70708304702031CDC29DD2934
:1003B800DE29C7010130F0007008C50708000830C1
:1003C80078020318E829E929002A7908283E8600D6
:1003D8008701010823009A000130F0007008F9072E
:1003E80008307902031CF929FA29FB29F90101309F
:1003F800F0007008F807022A210011120800E03006
:10040800F3002E30F4008231A32282319F30F300B2
:100418002430F40082319D2282318231C622823119
:100428008231C02282318231C32282318231BD229F
:10043800823108008231CC228231F3000830730205
:100448000318272A282A2A2A0030362A8231C92264
:100458008231F300083073020318332A342A352A0C
:10046800282A013008003B00AC01AD017030AE0015
:10047800AF01B001A201A1012430A4009F30A30064
:100488009230A6007C30A500A8010130A700AA017F
:10049800A9018030AB0008003B009C019D01203081
:1004A8009E009F01A001920191012E30940014300A
:1004B8009300FF309600FF309500980101309700B7
:1004C8009A01990180309B0008008131A021823176
:1004D80082318B2282318231B9228231823150229B
:1004E800823182313722823181317921823108008B
:1004F800F60076082000BB007308BA007408B9003B
:100508007508B800BF01BE016530C0000800703032
:100518002100990098012200960121001A1F952AAE
:10052800962A912A0800640080010131890B982AD3
:10053800003474083B00A4007308A3000800740882
:100548003B00940073089300080074082000B7006B
:100558007308B600080074082000B5007308B400DA
:1005680008002000BF01BE010800123021009700DA
:1005780008003B00AB1708003B00AF1708003B0022
:100588009B1708003B009F17080020003E08080042
:0805980020003F080800483470
:020000040001F9
:04000E00BC3FFF1FD5
:00000001FF
